:020000040800F2
:10000000900600202902000831020008330200088F
:10001000350200083702000839020008000000001D
:100020000000000000000000000000003B0200088B
:100030003D020008000000003F0200089106000891
:10004000430200084302000843020008430200087C
:10005000430200084302000843020008430200086C
:10006000430200084302000843020008430200085C
:10007000430200084302000843020008430200084C
:10008000430200084302000843020008430200083C
:10009000430200084302000843020008430200082C
:1000A000430200084302000843020008430200081C
:1000B000430200084302000843020008430200080C
:1000C00043020008430200084302000843020008FC
:1000D00043020008430200084302000843020008EC
:1000E00043020008430200084302000843020008DC
:1000F00043020008430200084302000843020008CC
:1001000000000000000000000000000043020008A2
:1001100043020008430200084302000843020008AB
:10012000430200084302000843020008430200089B
:100130004302000843020008000000000000000025
:1001400043020008430200084302000800000000C8
:10015000000000000000000000000000000000009F
:1001600000000000000000004302000843020008F5
:100170004302000800000000000000000000000032
:10018000000000004302000800F002F800F03CF814
:100190000AA090E8000C82448344AAF10107DA45E2
:1001A00001D100F031F8AFF2090EBAE80F0013F0F8
:1001B000010F18BFFB1A43F0010318472C0600007B
:1001C0004C060000103A24BF78C878C1FAD852070C
:1001D00024BF30C830C144BF04680C6070470000C1
:1001E0000023002400250026103A28BF78C1FBD840
:1001F000520728BF30C148BF0B6070471FB500F0E1
:10020000EDFA1FBD10B510BD00F031F81146FFF733
:10021000F5FF00F09DFA00F04FF803B4FFF7F2FF8E
:1002200003BC00F057F80000094880470948004720
:10023000FEE7FEE7FEE7FEE7FEE7FEE7FEE7FEE796
:10024000FEE7FEE704480549054A064B70470000F3
:10025000CD060008890100089000002090060020CB
:10026000900200209002002070477047704775464A
:1002700000F02CF8AE4605006946534620F0070012
:10028000854618B020B5FFF7DDFFBDE820404FF0F0
:1002900000064FF000074FF000084FF0000B21F070
:1002A0000701AC46ACE8C009ACE8C009ACE8C0093D
:1002B000ACE8C0098D46704710B50446AFF3008026
:1002C0002046BDE81040FFF7A8BF00000048704777
:1002D0002C00002001491820ABBEFEE726000200DA
:1002E0007047000010B501214FF0904000F0B1F8C8
:1002F00001281AD114480078052805DA1248007838
:10030000401C114908701DE010480078D0B9012048
:100310000E4908704FF440410D4800F0A3F84FF427
:1003200000410C4800F09EF80CE0074800780028D7
:1003300005DD05480078401E0349087002E00020F2
:100340000249087010BD0000260000202700002090
:1003500000040048001000481CB50121480400F0CA
:1003600025F90120009000208DF8040002208DF86E
:10037000050000208DF806008DF8070069464FF053
:10038000904000F01BF81CBD1CB50121080500F0D1
:100390000DF94FF47040009000208DF80400022009
:1003A0008DF8050000208DF806008DF807006946DD
:1003B000014800F003F81CBD000C0048F0B50A46E7
:1003C000002100240025002300BF3FE0012606FA9B
:1003D00001F4166806EA0405A54236D11679012E05
:1003E00002D01679022E18D186684FEA410C0327F5
:1003F00007FA0CF7BE43866056794F00BE40876807
:100400003E438660868801278F40BE43868087886A
:1004100096798E40B6B23743878006684FEA410C22
:10042000032707FA0CF7BE43066016794F00BE405B
:1004300007683E430660C3684F000326BE40B343CF
:10044000D6794F00BE403343C360491C1029BDD349
:10045000F0BD02460020138A0B400BB1012000E0E2
:1004600000207047828A4A408282704770470000AD
:100470001CB50121480500F099F84FF47F40009029
:1004800001208DF8040002208DF8050000208DF871
:1004900006008DF8070069460148FFF78FFF1CBD75
:1004A000001000481CB50121080500F07FF84FF44A
:1004B0006060009001208DF8040002208DF8050096
:1004C00000208DF806008DF8070069460148FFF707
:1004D00075FF1CBD000C00481CB50121880400F00C
:1004E00065F84FF46040009001208DF80400022070
:1004F0008DF8050000208DF806008DF8070069468C
:100500000148FFF75BFF1CBD000400480F4800785E
:10051000012819D10E480078142810DB00200C495E
:1005200008700C480078002805DD0A480078401E55
:100530000849087008E000200449087004E00448F5
:100540000078401C0249087070470000210000201C
:100550001F0000201C0000201048007801281BD13B
:100560000F480078142812DB00200D4908700D4850
:1005700000780D490978884205DA0A480078401C5D
:100580000849087008E000200449087004E00448A5
:100590000078401C024908707047000020000020CD
:1005A0001E0000201C0000201D00002029B1064A6A
:1005B00052690243044B5A6104E0034A5269824380
:1005C000014B5A6170470000001002400CB500203A
:1005D000019000902C48006840F480302A4908605F
:1005E00000BF2948006800F4003000900198401CCA
:1005F0000190009818B90198B0F5A04FF1D12248A8
:10060000006800F4003010B10120009001E00020EB
:1006100000900098012836D112201C4908601A4821
:100620004068194948600846406848600846406884
:1006300040F4806048600846406820F47C104860C0
:100640000846406840F4E81048600846006840F0FA
:100650008070086000BF0C48006800F0007000283F
:10066000F9D00948406820F003000749486008466F
:10067000406840F00200486000BF0348406800F056
:100680000C000828F9D10CBD0010024000200240E7
:1006900010B50C480088002804DD0A480088401E78
:1006A0000849088008480088002804DD06480088BA
:1006B000401E05490880FFF74FFFFFF727FFFFF7B0
:1006C00011FE10BD140000201800002010B51B48BA
:1006D000006840F47000194908601948006840F04B
:1006E0000100174908600846406816490840144947
:1006F00048600846006814490840114908600846E7
:10070000006820F4802008600846406820F4FE005D
:1007100048600846C06A20F00F00C8620846006BB7
:100720000A4908400649086300208860FFF74EFF29
:100730004FF0006001498039086010BD88ED00E08D
:10074000001002400CC07FF8FFFFF6FECCFC00FF5B
:10075000FFF78EFEFFF700FEFFF716FEFFF7BCFE69
:10076000FFF7A0FE184800684FF47A72B0FBF2F170
:10077000481EB0F1807F00D31BE0481E4FF0E022FE
:10078000506150170F22002807DA13071D0E0F4B78
:1007900000F00F04241F1D5503E013071C0E0C4B23
:1007A0001C5400BF00204FF0E02290610720106130
:1007B00000BFFFF75BFE4FF47A7006490880002007
:1007C0000549087000BFFEE70000002018ED00E0BA
:1007D00000E400E018000020160000204FF04070F8
:1007E000E1EE100A70470000080800080000002031
:1007F0002C000000C4010008340800082C00002070
:1008000064060000E001000800A24A0400000000A5
:1008100000000000010203040607080900000000B0
:10082000000000001414000000000100000000009F
:0408300000000000C4
:0400000508000229C4
:00000001FF
