:020000040800F2
:100000009806002029020008310200083302000887
:10001000350200083702000839020008000000001D
:100020000000000000000000000000003B0200088B
:100030003D020008000000003F02000871050008B2
:10004000430200084302000843020008430200087C
:10005000430200084302000843020008430200086C
:10006000430200084302000843020008430200085C
:10007000430200084302000843020008430200084C
:10008000430200084302000843020008430200083C
:10009000430200084302000843020008430200082C
:1000A000430200084302000843020008430200081C
:1000B000430200084302000843020008430200080C
:1000C00043020008430200084302000843020008FC
:1000D00043020008430200084302000843020008EC
:1000E00043020008430200084302000843020008DC
:1000F00043020008430200084302000843020008CC
:1001000000000000000000000000000043020008A2
:1001100043020008430200084302000843020008AB
:10012000430200084302000843020008430200089B
:100130004302000843020008000000000000000025
:1001400043020008430200084302000800000000C8
:10015000000000000000000000000000000000009F
:1001600000000000000000004302000843020008F5
:100170004302000800000000000000000000000032
:10018000000000004302000800F002F800F03CF814
:100190000AA090E8000C82448344AAF10107DA45E2
:1001A00001D100F031F8AFF2090EBAE80F0013F0F8
:1001B000010F18BFFB1A43F001031847780700002E
:1001C00098070000103A24BF78C878C1FAD85207BF
:1001D00024BF30C830C144BF04680C6070470000C1
:1001E0000023002400250026103A28BF78C1FBD840
:1001F000520728BF30C148BF0B6070471FB500F0E1
:1002000093FB1FBD10B510BD00F031F81146FFF78C
:10021000F5FF00F011FA00F04FF803B4FFF7F2FF1A
:1002200003BC00F057F80000094880470948004720
:10023000FEE7FEE7FEE7FEE7FEE7FEE7FEE7FEE796
:10024000FEE7FEE704480549054A064B70470000F3
:10025000B5050008890100089800002098060020D4
:10026000980200209802002070477047704775463A
:1002700000F02CF8AE4605006946534620F0070012
:10028000854618B020B5FFF7DDFFBDE820404FF0F0
:1002900000064FF000074FF000084FF0000B21F070
:1002A0000701AC46ACE8C009ACE8C009ACE8C0093D
:1002B000ACE8C0098D46704710B50446AFF3008026
:1002C0002046BDE81040FFF7A8BF00000048704777
:1002D0003800002001491820ABBEFEE726000200CE
:1002E00070471CB50121480400F0D0F801200090AF
:1002F00000208DF8040002208DF8050000208DF804
:1003000006008DF8070069464FF0904000F01CF899
:100310001CBD00001CB50121080500F0B7F84FF422
:100320007040009000208DF8040002208DF8050038
:1003300000208DF806008DF807006946014800F09E
:1003400003F81CBD000C0048F0B50A46002100244B
:100350000025002300BF3FE0012606FA01F41668DD
:1003600006EA0405A54236D11679012E02D0167987
:10037000022E18D186684FEA410C032707FA0CF7C2
:10038000BE43866056794F00BE4087683E43866014
:10039000868801278F40BE438680878896798E4065
:1003A000B6B23743878006684FEA410C032707FA45
:1003B0000CF7BE43066016794F00BE4007683E4307
:1003C0000660C3684F000326BE40B343D6794F0092
:1003D000BE403343C360491C1029BDD3F0BD024663
:1003E0000020138A0B400BB1012000E00020704771
:1003F0001CB50121480500F049F84FF47F400090FA
:1004000001208DF8040002208DF8050000208DF8F1
:1004100006008DF8070069460148FFF795FF1CBDEF
:10042000001000481CB50121080500F02FF84FF41A
:100430006060009001208DF8040002208DF8050016
:1004400000208DF806008DF8070069460148FFF787
:100450007BFF1CBD000C00481CB50121880400F086
:1004600015F84FF46040009001208DF80400022040
:100470008DF8050000208DF806008DF8070069460C
:100480000148FFF761FF1CBD0004004829B1064A7E
:1004900052690243044B5A6104E0034A52698243A1
:1004A000014B5A6170470000001002400CB500205B
:1004B000019000902C48006840F480302A49086080
:1004C00000BF2948006800F4003000900198401CEB
:1004D0000190009818B90198B0F5A04FF1D12248C9
:1004E000006800F4003010B10120009001E000200D
:1004F00000900098012836D112201C4908601A4843
:1005000040681949486008464068486008464068A5
:1005100040F4806048600846406820F47C104860E1
:100520000846406840F4E81048600846006840F01B
:100530008070086000BF0C48006800F00070002860
:10054000F9D00948406820F0030007494860084690
:10055000406840F00200486000BF0348406800F077
:100560000C000828F9D10CBD001002400020024008
:1005700010B50E480088002804DD0C480088401E95
:100580000A4908800A480088002804DD08480088D5
:10059000401E0749088000F04DF900F087F900F08F
:1005A0000BF900F0CBF800F08BF810BD1400002020
:1005B0001800002010B51B48006840F4700019496D
:1005C00008601948006840F00100174908600846B3
:1005D00040681649084014494860084600681449B4
:1005E0000840114908600846006820F4802008602F
:1005F0000846406820F4FE0048600846C06A20F0C3
:100600000F00C8620846006B0A49084006490863A3
:1006100000208860FFF74AFF4FF0006001498039F1
:10062000086010BD88ED00E0001002400CC07FF8AB
:10063000FFFFF6FECCFC00FFFFF7DAFEFFF751FEEE
:10064000FFF768FEFFF708FFFFF7ECFE17480068AA
:100650004FF47A72B0FBF2F1481EB0F1807F00D304
:100660001BE0481E4FF0E022506150170F22002877
:1006700007DA13071D0E0E4B00F00F04241F1D5543
:1006800003E013071C0E0B4B1C5400BF00204FF05F
:10069000E02290610720106100BF4FF47A70064994
:1006A000088000200549087000BFFEE70000002018
:1006B00018ED00E000E400E0180000201600002023
:1006C00010B54FF480411948FFF789FE0446B4B9CC
:1006D00017480078002805DD15480078401E1449A9
:1006E000087021E01348007801281DD11248407895
:1006F000401C1149487000200E49087014E00C4855
:100700000078052805DA0A480078401C0849087076
:100710000AE00848007820B907480078401C0649DC
:10072000087001200349087010BD0000000C00484B
:10073000290000202A0000202B00002010B54FF4D3
:1007400000511948FFF74BFE0446B4B9174800782A
:10075000002805DD15480078401E1449087021E086
:100760001348007801281DD112484078401C1149D7
:10077000487000200E49087014E00C4800780528E5
:1007800005DA0A480078401C084908700AE0084861
:10079000007820B907480078401C064908700120FD
:1007A0000349087010BD0000000C00482D00002017
:1007B0002E0000202F00002010B54FF48051194862
:1007C000FFF70DFE0446B4B917480078002805DD90
:1007D00015480078401E1449087021E0134800783D
:1007E00001281DD112484078401C11494870002052
:1007F0000E49087014E00C480078052805DA0A480C
:100800000078401C084908700AE00848007820B9C0
:1008100007480078401C0649087001200349087009
:1008200010BD0000000C0048310000203200002004
:100830003300002010B501214FF09040FFF7CFFDAD
:100840000446B4B916480078002805DD144800783D
:10085000401E1349087021E01248007801281DD17C
:1008600011484078401C1049487000200D4908701C
:1008700014E00B480078052805DA09480078401C88
:10088000074908700AE00748007820B90648007850
:10089000401C0549087001200249087010BD000085
:1008A00021000020220000202300002010B54FF47A
:1008B00000411948FFF793FD0446B4B91748007882
:1008C000002805DD15480078401E1449087021E015
:1008D0001348007801281DD112484078401C114966
:1008E000487000200E49087014E00C480078052874
:1008F00005DA0A480078401C084908700AE00848F0
:10090000007820B907480078401C0649087001208B
:100910000349087010BD0000000C004825000020AD
:1009200026000020270000204FF04070E1EE100A62
:100930007047000054090008000000203800000043
:10094000C40100088C09000838000020600600007F
:10095000E001000800A24A040000000000000000BE
:10096000010203040607080900000000000000015E
:100970000000000000000000000000000000000077
:0C0980000000000000000000000000006B
:0400000508000229C4
:00000001FF
