:020000040800F2
:100000009806002029020008310200083302000887
:10001000350200083702000839020008000000001D
:100020000000000000000000000000003B0200088B
:100030003D020008000000003F020008A906000879
:10004000430200084302000843020008430200087C
:10005000430200084302000843020008430200086C
:10006000430200084302000843020008430200085C
:10007000430200084302000843020008430200084C
:10008000430200084302000843020008430200083C
:10009000430200084302000843020008430200082C
:1000A000430200084302000843020008430200081C
:1000B000430200084302000843020008430200080C
:1000C00043020008430200084302000843020008FC
:1000D00043020008430200084302000843020008EC
:1000E00043020008430200084302000843020008DC
:1000F00043020008430200084302000843020008CC
:1001000000000000000000000000000043020008A2
:1001100043020008430200084302000843020008AB
:10012000430200084302000843020008430200089B
:100130004302000843020008000000000000000025
:1001400043020008430200084302000800000000C8
:10015000000000000000000000000000000000009F
:1001600000000000000000004302000843020008F5
:100170004302000800000000000000000000000032
:10018000000000004302000800F002F800F03CF814
:100190000AA090E8000C82448344AAF10107DA45E2
:1001A00001D100F031F8AFF2090EBAE80F0013F0F8
:1001B000010F18BFFB1A43F0010318473009000074
:1001C00050090000103A24BF78C878C1FAD8520705
:1001D00024BF30C830C144BF04680C6070470000C1
:1001E0000023002400250026103A28BF78C1FBD840
:1001F000520728BF30C148BF0B6070471FB500F0E1
:100200006FFC1FBD10B510BD00F031F81146FFF7AF
:10021000F5FF00F0E3FA00F04FF803B4FFF7F2FF48
:1002200003BC00F057F80000094880470948004720
:10023000FEE7FEE7FEE7FEE7FEE7FEE7FEE7FEE796
:10024000FEE7FEE704480549054A064B70470000F3
:10025000ED0600088901000898000020980600209B
:10026000980200209802002070477047704775463A
:1002700000F02CF8AE4605006946534620F0070012
:10028000854618B020B5FFF7DDFFBDE820404FF0F0
:1002900000064FF000074FF000084FF0000B21F070
:1002A0000701AC46ACE8C009ACE8C009ACE8C0093D
:1002B000ACE8C0098D46704710B50446AFF3008026
:1002C0002046BDE81040FFF7A8BF00000048704777
:1002D0003400002001491820ABBEFEE726000200D2
:1002E0007047000010B5002000F06CFA00280ADD0D
:1002F000012016490870002000F046FA4FF4005122
:10030000134800F0B1F8012000F05CFA002808DD85
:10031000012000F039FA012000F042FA01200D49D5
:1003200008700C48007801280ED100F051FA00281E
:100330000ADD4FF40051064800F094F8012000F067
:100340002FFA00200349087010BD0000240000208F
:1003500000100048230000201CB50121480400F0D3
:10036000F1F80120009000208DF8040002208DF8A3
:10037000050000208DF806008DF8070069464FF053
:10038000904000F01BF81CBD1CB50121080500F0D1
:10039000D9F84FF47040009000208DF8040002203E
:1003A0008DF8050000208DF806008DF807006946DD
:1003B000014800F003F81CBD000C0048F0B50A46E7
:1003C000002100240025002300BF3FE0012606FA9B
:1003D00001F4166806EA0405A54236D11679012E05
:1003E00002D01679022E18D186684FEA410C0327F5
:1003F00007FA0CF7BE43866056794F00BE40876807
:100400003E438660868801278F40BE43868087886A
:1004100096798E40B6B23743878006684FEA410C22
:10042000032707FA0CF7BE43066016794F00BE405B
:1004300007683E430660C3684F000326BE40B343CF
:10044000D6794F00BE403343C360491C1029BDD349
:10045000F0BD02460020138A0B400BB1012000E0E2
:100460000020704701857047816170471CB50121EC
:10047000480500F067F84FF47F40009001208DF8A8
:10048000040002208DF8050000208DF806008DF88C
:10049000070069460148FFF791FF1CBD00100048A6
:1004A0001CB50121080500F04DF84FF46060009084
:1004B00001208DF8040002208DF8050000208DF841
:1004C00006008DF8070069460148FFF777FF1CBD5D
:1004D000000C00481CB50121880400F033F84FF4EB
:1004E0006040009001208DF8040002208DF8050086
:1004F00000208DF806008DF8070069460148FFF7D7
:100500005DFF1CBD0004004810B5002000F05AF942
:10051000002807DD002000F037F94FF4807108480B
:10052000FFF7A2FF012000F053F9002807DD0120AA
:1005300000F036F94FF480710148FFF793FF10BDCA
:100540000010004829B1064A52690243044B5A611F
:1005500004E0034A52698243014B5A61704700002C
:100560000010024010B5002000F026F900280EDD32
:10057000002000F0FDF84FF400410948FFF774FF38
:100580004FF480410648FFF76DFFFFF7ABFE0120F7
:1005900000F012F9002802DD012000F0E9F810BD9A
:1005A0000010004810B5002000F006F900280EDD0C
:1005B000002000F0DDF8FFF7A7FF4FF400410848E6
:1005C000FFF750FF4FF480410548FFF74DFF012032
:1005D00000F0F2F8002802DD012000F0C9F810BD9B
:1005E000001000480CB50020019000902C480068D5
:1005F00040F480302A49086000BF2948006800F4B0
:10060000003000900198401C0190009818B90198A2
:10061000B0F5A04FF1D12248006800F4003010B1CD
:100620000120009001E0002000900098012836D1C0
:1006300012201C4908601A48406819494860084659
:10064000406848600846406840F48060486008465A
:10065000406820F47C1048600846406840F4E81088
:1006600048600846006840F08070086000BF0C4891
:10067000006800F000700028F9D00948406820F0B8
:100680000300074948600846406840F0020048609F
:1006900000BF0348406800F00C000828F9D10CBDE9
:1006A000001002400020024010B50E4800880028CB
:1006B00004DD0C480088401E0A4908800A4800886A
:1006C000002804DD08480088401E0749088000F023
:1006D0008DF900F0C7F900F04BF900F00BF900F0CC
:1006E000CBF810BD140000201800002010B51B48E6
:1006F000006840F47000194908601948006840F02B
:100700000100174908600846406816490840144926
:1007100048600846006814490840114908600846C6
:10072000006820F4802008600846406820F4FE003D
:1007300048600846C06A20F00F00C8620846006B97
:100740000A4908400649086300208860FFF74AFF0D
:100750004FF0006001498039086010BD88ED00E06D
:10076000001002400CC07FF8FFFFF6FECCFC00FF3B
:100770000449095C002904DD0249095C491E014A5B
:10078000115470471D0000200449095C002904DD54
:100790000249095C491E014A11547047210000209A
:1007A0000449095C002904DD0249095C491E014A2B
:1007B000115470472700002001460148405C7047F3
:1007C0001D00002001460148405C704721000020C8
:1007D00001460148405C704727000020FFF746FEB5
:1007E000FFF7BAFDFFF7D0FDFFF774FEFFF758FEE5
:1007F0001D4800684FF47A72B0FBF2F1481EB0F168
:10080000807F00D31BE0481E4FF0E022506150175C
:100810000F22002807DA13071E0E144B00F00F05F5
:100820002D1F5E5503E013071D0E114B1D5400BF15
:1008300000204FF0E02290610720106100BF0020EF
:100840000C49087000BF002400BF00BF0BE024B9B2
:1008500000BFFFF787FE012405E0012C03D100BF94
:10086000FFF7A0FE0024F2E70000002018ED00E0F2
:1008700000E400E01600002010B54FF48041194854
:10088000FFF7E7FD0446B4B917480078002805DDF6
:1008900015480078401E1449087021E0134800787C
:1008A00001281DD112484078401C11494870002091
:1008B0000E49087014E00C480078052805DA0A484B
:1008C0000078401C084908700AE00848007820B900
:1008D00007480078401C0649087001200349087049
:1008E00010BD0000000C004825000020260000205C
:1008F0002700002010B54FF400511948FFF7A9FD5B
:100900000446B4B917480078002805DD154800787A
:10091000401E1449087021E01348007801281DD1B9
:1009200012484078401C1149487000200E49087058
:1009300014E00C480078052805DA0A480078401CC5
:10094000084908700AE00848007820B9074800788C
:10095000401C0649087001200349087010BD0000C2
:10096000000C0048290000202A0000202B00002055
:1009700010B54FF480511948FFF76BFD0446B4B928
:1009800017480078002805DD15480078401E1449F6
:10099000087021E01348007801281DD112484078E2
:1009A000401C1149487000200E49087014E00C48A2
:1009B0000078052805DA0A480078401C08490870C4
:1009C0000AE00848007820B907480078401C06492A
:1009D000087001200349087010BD0000000C004899
:1009E0002D0000202E0000202F00002010B5012136
:1009F0004FF09040FFF72DFD0446B4B9164800783B
:100A0000002805DD14480078401E1349087021E0D5
:100A10001248007801281DD111484078401C104927
:100A2000487000200D49087014E00B480078052834
:100A300005DA09480078401C074908700AE00748B1
:100A4000007820B906480078401C0549087001204C
:100A50000249087010BD00001B0000201C0000208F
:100A60001D00002010B54FF400411948FFF7F1FCBC
:100A70000446B4B917480078002805DD1548007809
:100A8000401E1449087021E01348007801281DD148
:100A900012484078401C1149487000200E490870E7
:100AA00014E00C480078052805DA0A480078401C54
:100AB000084908700AE00848007820B9074800781B
:100AC000401C0649087001200349087010BD000051
:100AD000000C00481F000020200000202100002002
:100AE0004FF04070E1EE100A704700000C0B000858
:100AF0000000002034000000C4010008400B000882
:100B00003400002064060000E001000800A24A044E
:100B100000000000000000000102030406070809AD
:100B200000000000000000000000000000000000C5
:100B300000000000000000000000000000000000B5
:0400000508000229C4
:00000001FF
