:020000040800F2
:10000000600600200D020008150200081702000813
:10001000190200081B0200081D0200080000000071
:100020000000000000000000000000001F020008A7
:100030002102000800000000230200082502000839
:1000400027020008270200082702000827020008EC
:1000500027020008270200082702000827020008DC
:1000600027020008270200082702000827020008CC
:1000700027020008270200082702000827020008BC
:1000800027020008270200082702000827020008AC
:10009000270200082702000827020008270200089C
:1000A000270200082702000827020008270200088C
:1000B000270200082702000827020008270200087C
:1000C000270200082702000827020008270200086C
:1000D000270200082702000827020008270200085C
:1000E000270200082702000827020008270200084C
:1000F000270200082702000827020008270200083C
:1001000000000000000000000000000027020008BE
:10011000270200082702000827020008270200081B
:10012000270200082702000827020008270200080B
:10013000270200082702000800000000000000005D
:10014000270200082702000827020008000000001C
:10015000000000000000000000000000000000009F
:10016000000000000000000027020008270200082D
:10017000270200080000000000000000000000004E
:10018000000000002702000800F002F800F02EF83E
:100190000AA090E8000C82448344AAF10107DA45E2
:1001A00001D100F023F8AFF2090EBAE80F0013F006
:1001B000010F18BFFB1A43F001031847900200001B
:1001C000A00200000023002400250026103A28BFCA
:1001D00078C1FBD8520728BF30C148BF0B607047B9
:1001E0001FB500F02DF91FBD10B510BD00F031F89E
:1001F0001146FFF7F5FF00F00BF900F04FF803B4DC
:10020000FFF7F2FF03BC00F057F8000009488047F1
:1002100009480047FEE7FEE7FEE7FEE7FEE7FEE7E8
:10022000FEE7FEE7FEE7FEE704480549054A064B00
:10023000704700008D03000889010008600000205D
:1002400060060020600200206002002070477047B6
:100250007047754600F02CF8AE46050069465346D7
:1002600020F00700854618B020B5FFF7DDFFBDE898
:1002700020404FF000064FF000074FF000084FF00D
:10028000000B21F00701AC46ACE8C009ACE8C0099E
:10029000ACE8C009ACE8C0098D46704710B504460B
:1002A000AFF300802046BDE81040FFF7A8BF000074
:1002B000004870470000002001491820ABBEFEE74F
:1002C00026000200704700000CB50020019000904D
:1002D0002C48006840F480302A49086000BF294853
:1002E000006800F4003000900198401C01900098D4
:1002F00018B90198B0F5A04FF1D12248006800F478
:10030000003010B10120009001E000200090009822
:10031000012836D112201C4908601A484068194942
:1003200048600846406848600846406840F480607D
:1003300048600846406820F47C10486008464068E1
:1003400040F4E81048600846006840F0807008609B
:1003500000BF0C48006800F000700028F9D0094880
:10036000406820F00300074948600846406840F0B4
:100370000200486000BF0348406800F00C000828F5
:10038000F9D10CBD001002400020024010B51B48FE
:10039000006840F47000194908601948006840F08E
:1003A000010017490860084640681649084014498A
:1003B000486008460068144908401149086008462A
:1003C000006820F4802008600846406820F4FE00A1
:1003D00048600846C06A20F00F00C8620846006BFB
:1003E0000A4908400649086300208860FFF76CFF4F
:1003F0004FF0006001498039086010BD88ED00E0D1
:10040000001002400CC07FF8FFFFF6FECCFC00FF9E
:100410000848406940F40010064948610648074909
:10042000086000208880886003E04FF47F40034923
:100430008882FAE70010024000005555001000487D
:100440004FF04070E1EE100A704700005C040008B5
:0C0450000000002060060000C40100084D
:040000050800020DE0
:00000001FF
